{
  "address": "0xe7f1725E7734CE288F8367e1Bb143E90bb3F0512",
  "abi": [
    {
      "inputs": [
        {
          "internalType": "address",
          "name": "priceFeedAddress",
          "type": "address"
        }
      ],
      "stateMutability": "nonpayable",
      "type": "constructor"
    },
    {
      "inputs": [],
      "name": "FundMe__NotOwner",
      "type": "error"
    },
    {
      "stateMutability": "payable",
      "type": "fallback"
    },
    {
      "inputs": [],
      "name": "MINIMUM_USD",
      "outputs": [
        {
          "internalType": "uint256",
          "name": "",
          "type": "uint256"
        }
      ],
      "stateMutability": "view",
      "type": "function"
    },
    {
      "inputs": [
        {
          "internalType": "address",
          "name": "",
          "type": "address"
        }
      ],
      "name": "addressToAmountFunded",
      "outputs": [
        {
          "internalType": "uint256",
          "name": "",
          "type": "uint256"
        }
      ],
      "stateMutability": "view",
      "type": "function"
    },
    {
      "inputs": [
        {
          "internalType": "uint256",
          "name": "",
          "type": "uint256"
        }
      ],
      "name": "founders",
      "outputs": [
        {
          "internalType": "address",
          "name": "",
          "type": "address"
        }
      ],
      "stateMutability": "view",
      "type": "function"
    },
    {
      "inputs": [],
      "name": "fund",
      "outputs": [],
      "stateMutability": "payable",
      "type": "function"
    },
    {
      "inputs": [],
      "name": "iOwner",
      "outputs": [
        {
          "internalType": "address",
          "name": "",
          "type": "address"
        }
      ],
      "stateMutability": "view",
      "type": "function"
    },
    {
      "inputs": [],
      "name": "priceFeed",
      "outputs": [
        {
          "internalType": "contract AggregatorV3Interface",
          "name": "",
          "type": "address"
        }
      ],
      "stateMutability": "view",
      "type": "function"
    },
    {
      "inputs": [],
      "name": "withdraw",
      "outputs": [],
      "stateMutability": "nonpayable",
      "type": "function"
    },
    {
      "stateMutability": "payable",
      "type": "receive"
    }
  ],
  "transactionHash": "0x41b3f252d957611f0de52d38959b3a9073f6302ead5cc3fc3962df1cf04e1942",
  "args": [
    "0x5FbDB2315678afecb367f032d93F642f64180aa3"
  ],
  "numDeployments": 1,
  "solcInputHash": "0a93d28ff3f57c6b9b872b4b75bd3ad0",
  "bytecode": "0x60a060405234801561001057600080fd5b50604051610f71380380610f7183398181016040528101906100329190610113565b3373ffffffffffffffffffffffffffffffffffffffff1660808173ffffffffffffffffffffffffffffffffffffffff1660601b8152505080600260006101000a81548173ffffffffffffffffffffffffffffffffffffffff021916908373ffffffffffffffffffffffffffffffffffffffff16021790555050610140565b600080fd5b600073ffffffffffffffffffffffffffffffffffffffff82169050919050565b60006100e0826100b5565b9050919050565b6100f0816100d5565b81146100fb57600080fd5b50565b60008151905061010d816100e7565b92915050565b600060208284031215610129576101286100b0565b5b6000610137848285016100fe565b91505092915050565b60805160601c610e0c610165600039600081816102d3015261055e0152610e0c6000f3fe6080604052600436106100745760003560e01c8063741bef1a1161004e578063741bef1a1461010c57806377c9dd4b14610137578063b60d428814610162578063d8e75f621461016c57610083565b80633ccfd60b1461008d5780633e47d6f3146100a45780636b69a592146100e157610083565b36610083576100816101a9565b005b61008b6101a9565b005b34801561009957600080fd5b506100a26102d1565b005b3480156100b057600080fd5b506100cb60048036038101906100c6919061079a565b610511565b6040516100d891906107e0565b60405180910390f35b3480156100ed57600080fd5b506100f6610529565b60405161010391906107e0565b60405180910390f35b34801561011857600080fd5b50610121610536565b60405161012e919061085a565b60405180910390f35b34801561014357600080fd5b5061014c61055c565b6040516101599190610884565b60405180910390f35b61016a6101a9565b005b34801561017857600080fd5b50610193600480360381019061018e91906108cb565b610580565b6040516101a09190610884565b60405180910390f35b6802b5e3af16b18800006101e8600260009054906101000a900473ffffffffffffffffffffffffffffffffffffffff16346105bf90919063ffffffff16565b1015610229576040517f08c379a000000000000000000000000000000000000000000000000000000000815260040161022090610955565b60405180910390fd5b6001339080600181540180825580915050600190039060005260206000200160009091909190916101000a81548173ffffffffffffffffffffffffffffffffffffffff021916908373ffffffffffffffffffffffffffffffffffffffff160217905550346000803373ffffffffffffffffffffffffffffffffffffffff1673ffffffffffffffffffffffffffffffffffffffff16815260200190815260200160002081905550565b7f000000000000000000000000000000000000000000000000000000000000000073ffffffffffffffffffffffffffffffffffffffff163373ffffffffffffffffffffffffffffffffffffffff1614610356576040517f579610db00000000000000000000000000000000000000000000000000000000815260040160405180910390fd5b60005b6001805490508110156104015760006001828154811061037c5761037b610975565b5b9060005260206000200160009054906101000a900473ffffffffffffffffffffffffffffffffffffffff16905060008060008373ffffffffffffffffffffffffffffffffffffffff1673ffffffffffffffffffffffffffffffffffffffff168152602001908152602001600020819055505080806103f9906109d3565b915050610359565b50600067ffffffffffffffff81111561041d5761041c610a1c565b5b60405190808252806020026020018201604052801561044b5781602001602082028036833780820191505090505b5060019080519060200190610461929190610690565b5060003373ffffffffffffffffffffffffffffffffffffffff164760405161048890610a7c565b60006040518083038185875af1925050503d80600081146104c5576040519150601f19603f3d011682016040523d82523d6000602084013e6104ca565b606091505b505090508061050e576040517f08c379a000000000000000000000000000000000000000000000000000000000815260040161050590610add565b60405180910390fd5b50565b60006020528060005260406000206000915090505481565b6802b5e3af16b188000081565b600260009054906101000a900473ffffffffffffffffffffffffffffffffffffffff1681565b7f000000000000000000000000000000000000000000000000000000000000000081565b6001818154811061059057600080fd5b906000526020600020016000915054906101000a900473ffffffffffffffffffffffffffffffffffffffff1681565b6000670de0b6b3a76400006105d3836105f0565b846105de9190610afd565b6105e89190610b86565b905092915050565b6000808273ffffffffffffffffffffffffffffffffffffffff1663feaf968c6040518163ffffffff1660e01b815260040160a06040518083038186803b15801561063957600080fd5b505afa15801561064d573d6000803e3d6000fd5b505050506040513d601f19601f820116820180604052508101906106719190610c44565b5050509150506402540be400816106889190610cbf565b915050919050565b828054828255906000526020600020908101928215610709579160200282015b828111156107085782518260006101000a81548173ffffffffffffffffffffffffffffffffffffffff021916908373ffffffffffffffffffffffffffffffffffffffff160217905550916020019190600101906106b0565b5b509050610716919061071a565b5090565b5b8082111561073357600081600090555060010161071b565b5090565b600080fd5b600073ffffffffffffffffffffffffffffffffffffffff82169050919050565b60006107678261073c565b9050919050565b6107778161075c565b811461078257600080fd5b50565b6000813590506107948161076e565b92915050565b6000602082840312156107b0576107af610737565b5b60006107be84828501610785565b91505092915050565b6000819050919050565b6107da816107c7565b82525050565b60006020820190506107f560008301846107d1565b92915050565b6000819050919050565b600061082061081b6108168461073c565b6107fb565b61073c565b9050919050565b600061083282610805565b9050919050565b600061084482610827565b9050919050565b61085481610839565b82525050565b600060208201905061086f600083018461084b565b92915050565b61087e8161075c565b82525050565b60006020820190506108996000830184610875565b92915050565b6108a8816107c7565b81146108b357600080fd5b50565b6000813590506108c58161089f565b92915050565b6000602082840312156108e1576108e0610737565b5b60006108ef848285016108b6565b91505092915050565b600082825260208201905092915050565b7f6e6f7420656e6f7567682073656e742100000000000000000000000000000000600082015250565b600061093f6010836108f8565b915061094a82610909565b602082019050919050565b6000602082019050818103600083015261096e81610932565b9050919050565b7f4e487b7100000000000000000000000000000000000000000000000000000000600052603260045260246000fd5b7f4e487b7100000000000000000000000000000000000000000000000000000000600052601160045260246000fd5b60006109de826107c7565b91507fffffffffffffffffffffffffffffffffffffffffffffffffffffffffffffffff821415610a1157610a106109a4565b5b600182019050919050565b7f4e487b7100000000000000000000000000000000000000000000000000000000600052604160045260246000fd5b600081905092915050565b50565b6000610a66600083610a4b565b9150610a7182610a56565b600082019050919050565b6000610a8782610a59565b9150819050919050565b7f63616c6c206661696c6564210000000000000000000000000000000000000000600082015250565b6000610ac7600c836108f8565b9150610ad282610a91565b602082019050919050565b60006020820190508181036000830152610af681610aba565b9050919050565b6000610b08826107c7565b9150610b13836107c7565b9250817fffffffffffffffffffffffffffffffffffffffffffffffffffffffffffffffff0483118215151615610b4c57610b4b6109a4565b5b828202905092915050565b7f4e487b7100000000000000000000000000000000000000000000000000000000600052601260045260246000fd5b6000610b91826107c7565b9150610b9c836107c7565b925082610bac57610bab610b57565b5b828204905092915050565b600069ffffffffffffffffffff82169050919050565b610bd681610bb7565b8114610be157600080fd5b50565b600081519050610bf381610bcd565b92915050565b6000819050919050565b610c0c81610bf9565b8114610c1757600080fd5b50565b600081519050610c2981610c03565b92915050565b600081519050610c3e8161089f565b92915050565b600080600080600060a08688031215610c6057610c5f610737565b5b6000610c6e88828901610be4565b9550506020610c7f88828901610c1a565b9450506040610c9088828901610c2f565b9350506060610ca188828901610c2f565b9250506080610cb288828901610be4565b9150509295509295909350565b6000610cca82610bf9565b9150610cd583610bf9565b9250827f7fffffffffffffffffffffffffffffffffffffffffffffffffffffffffffffff0482116000841360008413161615610d1457610d136109a4565b5b817f80000000000000000000000000000000000000000000000000000000000000000583126000841260008413161615610d5157610d506109a4565b5b827f80000000000000000000000000000000000000000000000000000000000000000582126000841360008412161615610d8e57610d8d6109a4565b5b827f7fffffffffffffffffffffffffffffffffffffffffffffffffffffffffffffff0582126000841260008412161615610dcb57610dca6109a4565b5b82820290509291505056fea264697066735822122042241736babd80f191f99e2bd3ed55395e62bc9c0bc999e9b5612cdfc33b23cc64736f6c63430008080033",
  "devdoc": {
    "author": "Dexconv",
    "details": "this implements pricefeeds as our library",
    "kind": "dev",
    "methods": {
      "fund()": {
        "details": "this implements pricefeeds as our library"
      }
    },
    "title": "A contract for crowd funding",
    "version": 1
  },
  "userdoc": {
    "kind": "user",
    "methods": {
      "fund()": {
        "notice": "this function funds this contract"
      }
    },
    "notice": "this contract is to demmo sammple funding contract",
    "version": 1
  },
  "storageLayout": {
    "storage": [
      {
        "astId": 58,
        "contract": "contracts/FundMe.sol:FundMe",
        "label": "addressToAmountFunded",
        "offset": 0,
        "slot": "0",
        "type": "t_mapping(t_address,t_uint256)"
      },
      {
        "astId": 66,
        "contract": "contracts/FundMe.sol:FundMe",
        "label": "founders",
        "offset": 0,
        "slot": "1",
        "type": "t_array(t_address)dyn_storage"
      },
      {
        "astId": 71,
        "contract": "contracts/FundMe.sol:FundMe",
        "label": "priceFeed",
        "offset": 0,
        "slot": "2",
        "type": "t_contract(AggregatorV3Interface)45"
      }
    ],
    "types": {
      "t_address": {
        "encoding": "inplace",
        "label": "address",
        "numberOfBytes": "20"
      },
      "t_array(t_address)dyn_storage": {
        "base": "t_address",
        "encoding": "dynamic_array",
        "label": "address[]",
        "numberOfBytes": "32"
      },
      "t_contract(AggregatorV3Interface)45": {
        "encoding": "inplace",
        "label": "contract AggregatorV3Interface",
        "numberOfBytes": "20"
      },
      "t_mapping(t_address,t_uint256)": {
        "encoding": "mapping",
        "key": "t_address",
        "label": "mapping(address => uint256)",
        "numberOfBytes": "32",
        "value": "t_uint256"
      },
      "t_uint256": {
        "encoding": "inplace",
        "label": "uint256",
        "numberOfBytes": "32"
      }
    }
  }
}